{
  "contractName": "Adinkra",
  "abi": [
    {
      "inputs": [],
      "stateMutability": "nonpayable",
      "type": "constructor"
    },
    {
      "anonymous": false,
      "inputs": [
        {
          "indexed": true,
          "internalType": "address",
          "name": "owner",
          "type": "address"
        },
        {
          "indexed": true,
          "internalType": "address",
          "name": "spender",
          "type": "address"
        },
        {
          "indexed": false,
          "internalType": "uint256",
          "name": "value",
          "type": "uint256"
        }
      ],
      "name": "Approval",
      "type": "event"
    },
    {
      "anonymous": false,
      "inputs": [
        {
          "indexed": true,
          "internalType": "address",
          "name": "previousOwner",
          "type": "address"
        },
        {
          "indexed": true,
          "internalType": "address",
          "name": "newOwner",
          "type": "address"
        }
      ],
      "name": "OwnershipTransferred",
      "type": "event"
    },
    {
      "anonymous": false,
      "inputs": [
        {
          "indexed": false,
          "internalType": "address",
          "name": "account",
          "type": "address"
        }
      ],
      "name": "Paused",
      "type": "event"
    },
    {
      "anonymous": false,
      "inputs": [
        {
          "indexed": true,
          "internalType": "address",
          "name": "from",
          "type": "address"
        },
        {
          "indexed": true,
          "internalType": "address",
          "name": "to",
          "type": "address"
        },
        {
          "indexed": false,
          "internalType": "uint256",
          "name": "value",
          "type": "uint256"
        }
      ],
      "name": "Transfer",
      "type": "event"
    },
    {
      "anonymous": false,
      "inputs": [
        {
          "indexed": false,
          "internalType": "address",
          "name": "account",
          "type": "address"
        }
      ],
      "name": "Unpaused",
      "type": "event"
    },
    {
      "inputs": [
        {
          "internalType": "address",
          "name": "owner",
          "type": "address"
        },
        {
          "internalType": "address",
          "name": "spender",
          "type": "address"
        }
      ],
      "name": "allowance",
      "outputs": [
        {
          "internalType": "uint256",
          "name": "",
          "type": "uint256"
        }
      ],
      "stateMutability": "view",
      "type": "function"
    },
    {
      "inputs": [
        {
          "internalType": "address",
          "name": "spender",
          "type": "address"
        },
        {
          "internalType": "uint256",
          "name": "amount",
          "type": "uint256"
        }
      ],
      "name": "approve",
      "outputs": [
        {
          "internalType": "bool",
          "name": "",
          "type": "bool"
        }
      ],
      "stateMutability": "nonpayable",
      "type": "function"
    },
    {
      "inputs": [
        {
          "internalType": "address",
          "name": "account",
          "type": "address"
        }
      ],
      "name": "balanceOf",
      "outputs": [
        {
          "internalType": "uint256",
          "name": "",
          "type": "uint256"
        }
      ],
      "stateMutability": "view",
      "type": "function"
    },
    {
      "inputs": [],
      "name": "decimals",
      "outputs": [
        {
          "internalType": "uint8",
          "name": "",
          "type": "uint8"
        }
      ],
      "stateMutability": "view",
      "type": "function"
    },
    {
      "inputs": [
        {
          "internalType": "address",
          "name": "spender",
          "type": "address"
        },
        {
          "internalType": "uint256",
          "name": "subtractedValue",
          "type": "uint256"
        }
      ],
      "name": "decreaseAllowance",
      "outputs": [
        {
          "internalType": "bool",
          "name": "",
          "type": "bool"
        }
      ],
      "stateMutability": "nonpayable",
      "type": "function"
    },
    {
      "inputs": [
        {
          "internalType": "address",
          "name": "spender",
          "type": "address"
        },
        {
          "internalType": "uint256",
          "name": "addedValue",
          "type": "uint256"
        }
      ],
      "name": "increaseAllowance",
      "outputs": [
        {
          "internalType": "bool",
          "name": "",
          "type": "bool"
        }
      ],
      "stateMutability": "nonpayable",
      "type": "function"
    },
    {
      "inputs": [],
      "name": "name",
      "outputs": [
        {
          "internalType": "string",
          "name": "",
          "type": "string"
        }
      ],
      "stateMutability": "view",
      "type": "function"
    },
    {
      "inputs": [],
      "name": "owner",
      "outputs": [
        {
          "internalType": "address",
          "name": "",
          "type": "address"
        }
      ],
      "stateMutability": "view",
      "type": "function"
    },
    {
      "inputs": [],
      "name": "paused",
      "outputs": [
        {
          "internalType": "bool",
          "name": "",
          "type": "bool"
        }
      ],
      "stateMutability": "view",
      "type": "function"
    },
    {
      "inputs": [],
      "name": "renounceOwnership",
      "outputs": [],
      "stateMutability": "nonpayable",
      "type": "function"
    },
    {
      "inputs": [],
      "name": "symbol",
      "outputs": [
        {
          "internalType": "string",
          "name": "",
          "type": "string"
        }
      ],
      "stateMutability": "view",
      "type": "function"
    },
    {
      "inputs": [],
      "name": "totalSupply",
      "outputs": [
        {
          "internalType": "uint256",
          "name": "",
          "type": "uint256"
        }
      ],
      "stateMutability": "view",
      "type": "function"
    },
    {
      "inputs": [
        {
          "internalType": "address",
          "name": "to",
          "type": "address"
        },
        {
          "internalType": "uint256",
          "name": "amount",
          "type": "uint256"
        }
      ],
      "name": "transfer",
      "outputs": [
        {
          "internalType": "bool",
          "name": "",
          "type": "bool"
        }
      ],
      "stateMutability": "nonpayable",
      "type": "function"
    },
    {
      "inputs": [
        {
          "internalType": "address",
          "name": "from",
          "type": "address"
        },
        {
          "internalType": "address",
          "name": "to",
          "type": "address"
        },
        {
          "internalType": "uint256",
          "name": "amount",
          "type": "uint256"
        }
      ],
      "name": "transferFrom",
      "outputs": [
        {
          "internalType": "bool",
          "name": "",
          "type": "bool"
        }
      ],
      "stateMutability": "nonpayable",
      "type": "function"
    },
    {
      "inputs": [
        {
          "internalType": "address",
          "name": "newOwner",
          "type": "address"
        }
      ],
      "name": "transferOwnership",
      "outputs": [],
      "stateMutability": "nonpayable",
      "type": "function"
    }
  ],
  "bytecode": "0x60806040523480156200001157600080fd5b506040518060400160405280600781526020017f4164696e6b7261000000000000000000000000000000000000000000000000008152506040518060400160405280600481526020017f41444b520000000000000000000000000000000000000000000000000000000081525081600390805190602001906200009692919062000391565b508060049080519060200190620000af92919062000391565b5050506000600560006101000a81548160ff021916908315150217905550620000ed620000e16200013760201b60201c565b6200013f60201b60201c565b6200013133620001026200020560201b60201c565b600a6200011091906200059c565b678ac7230489e80000620001259190620006d9565b6200020e60201b60201c565b620007f2565b600033905090565b6000600560019054906101000a900473ffffffffffffffffffffffffffffffffffffffff16905081600560016101000a81548173ffffffffffffffffffffffffffffffffffffffff021916908373ffffffffffffffffffffffffffffffffffffffff1602179055508173ffffffffffffffffffffffffffffffffffffffff168173ffffffffffffffffffffffffffffffffffffffff167f8be0079c531659141344cd1fd0a4f28419497f9722a3daafe3b4186f6b6457e060405160405180910390a35050565b60006012905090565b600073ffffffffffffffffffffffffffffffffffffffff168273ffffffffffffffffffffffffffffffffffffffff16141562000281576040517f08c379a0000000000000000000000000000000000000000000000000000000008152600401620002789062000494565b60405180910390fd5b62000295600083836200038760201b60201c565b8060026000828254620002a99190620004e4565b92505081905550806000808473ffffffffffffffffffffffffffffffffffffffff1673ffffffffffffffffffffffffffffffffffffffff1681526020019081526020016000206000828254620003009190620004e4565b925050819055508173ffffffffffffffffffffffffffffffffffffffff16600073ffffffffffffffffffffffffffffffffffffffff167fddf252ad1be2c89b69c2b068fc378daa952ba7f163c4a11628f55a4df523b3ef83604051620003679190620004b6565b60405180910390a362000383600083836200038c60201b60201c565b5050565b505050565b505050565b8280546200039f9062000751565b90600052602060002090601f016020900481019282620003c357600085556200040f565b82601f10620003de57805160ff19168380011785556200040f565b828001600101855582156200040f579182015b828111156200040e578251825591602001919060010190620003f1565b5b5090506200041e919062000422565b5090565b5b808211156200043d57600081600090555060010162000423565b5090565b600062000450601f83620004d3565b91507f45524332303a206d696e7420746f20746865207a65726f2061646472657373006000830152602082019050919050565b6200048e816200073a565b82525050565b60006020820190508181036000830152620004af8162000441565b9050919050565b6000602082019050620004cd600083018462000483565b92915050565b600082825260208201905092915050565b6000620004f1826200073a565b9150620004fe836200073a565b9250827fffffffffffffffffffffffffffffffffffffffffffffffffffffffffffffffff0382111562000536576200053562000787565b5b828201905092915050565b6000808291508390505b600185111562000593578086048111156200056b576200056a62000787565b5b60018516156200057b5780820291505b80810290506200058b85620007e5565b94506200054b565b94509492505050565b6000620005a9826200073a565b9150620005b68362000744565b9250620005e57fffffffffffffffffffffffffffffffffffffffffffffffffffffffffffffffff8484620005ed565b905092915050565b600082620005ff5760019050620006d2565b816200060f5760009050620006d2565b8160018114620006285760028114620006335762000669565b6001915050620006d2565b60ff84111562000648576200064762000787565b5b8360020a91508482111562000662576200066162000787565b5b50620006d2565b5060208310610133831016604e8410600b8410161715620006a35782820a9050838111156200069d576200069c62000787565b5b620006d2565b620006b2848484600162000541565b92509050818404811115620006cc57620006cb62000787565b5b81810290505b9392505050565b6000620006e6826200073a565b9150620006f3836200073a565b9250817fffffffffffffffffffffffffffffffffffffffffffffffffffffffffffffffff04831182151516156200072f576200072e62000787565b5b828202905092915050565b6000819050919050565b600060ff82169050919050565b600060028204905060018216806200076a57607f821691505b60208210811415620007815762000780620007b6565b5b50919050565b7f4e487b7100000000000000000000000000000000000000000000000000000000600052601160045260246000fd5b7f4e487b7100000000000000000000000000000000000000000000000000000000600052602260045260246000fd5b60008160011c9050919050565b6115da80620008026000396000f3fe608060405234801561001057600080fd5b50600436106100f55760003560e01c806370a0823111610097578063a457c2d711610066578063a457c2d714610278578063a9059cbb146102a8578063dd62ed3e146102d8578063f2fde38b14610308576100f5565b806370a0823114610202578063715018a6146102325780638da5cb5b1461023c57806395d89b411461025a576100f5565b806323b872dd116100d357806323b872dd14610166578063313ce5671461019657806339509351146101b45780635c975abb146101e4576100f5565b806306fdde03146100fa578063095ea7b31461011857806318160ddd14610148575b600080fd5b610102610324565b60405161010f9190611263565b60405180910390f35b610132600480360381019061012d9190610e32565b6103b6565b60405161013f9190611248565b60405180910390f35b6101506103d9565b60405161015d91906113a5565b60405180910390f35b610180600480360381019061017b9190610de3565b6103e3565b60405161018d9190611248565b60405180910390f35b61019e610412565b6040516101ab91906113c0565b60405180910390f35b6101ce60048036038101906101c99190610e32565b61041b565b6040516101db9190611248565b60405180910390f35b6101ec610452565b6040516101f99190611248565b60405180910390f35b61021c60048036038101906102179190610d7e565b610469565b60405161022991906113a5565b60405180910390f35b61023a6104b1565b005b6102446104c5565b604051610251919061122d565b60405180910390f35b6102626104ef565b60405161026f9190611263565b60405180910390f35b610292600480360381019061028d9190610e32565b610581565b60405161029f9190611248565b60405180910390f35b6102c260048036038101906102bd9190610e32565b6105f8565b6040516102cf9190611248565b60405180910390f35b6102f260048036038101906102ed9190610da7565b61061b565b6040516102ff91906113a5565b60405180910390f35b610322600480360381019061031d9190610d7e565b6106a2565b005b606060038054610333906114d5565b80601f016020809104026020016040519081016040528092919081815260200182805461035f906114d5565b80156103ac5780601f10610381576101008083540402835291602001916103ac565b820191906000526020600020905b81548152906001019060200180831161038f57829003601f168201915b5050505050905090565b6000806103c1610726565b90506103ce81858561072e565b600191505092915050565b6000600254905090565b6000806103ee610726565b90506103fb8582856108f9565b610406858585610985565b60019150509392505050565b60006012905090565b600080610426610726565b9050610447818585610438858961061b565b61044291906113f7565b61072e565b600191505092915050565b6000600560009054906101000a900460ff16905090565b60008060008373ffffffffffffffffffffffffffffffffffffffff1673ffffffffffffffffffffffffffffffffffffffff168152602001908152602001600020549050919050565b6104b9610c06565b6104c36000610c84565b565b6000600560019054906101000a900473ffffffffffffffffffffffffffffffffffffffff16905090565b6060600480546104fe906114d5565b80601f016020809104026020016040519081016040528092919081815260200182805461052a906114d5565b80156105775780601f1061054c57610100808354040283529160200191610577565b820191906000526020600020905b81548152906001019060200180831161055a57829003601f168201915b5050505050905090565b60008061058c610726565b9050600061059a828661061b565b9050838110156105df576040517f08c379a00000000000000000000000000000000000000000000000000000000081526004016105d690611385565b60405180910390fd5b6105ec828686840361072e565b60019250505092915050565b600080610603610726565b9050610610818585610985565b600191505092915050565b6000600160008473ffffffffffffffffffffffffffffffffffffffff1673ffffffffffffffffffffffffffffffffffffffff16815260200190815260200160002060008373ffffffffffffffffffffffffffffffffffffffff1673ffffffffffffffffffffffffffffffffffffffff16815260200190815260200160002054905092915050565b6106aa610c06565b600073ffffffffffffffffffffffffffffffffffffffff168173ffffffffffffffffffffffffffffffffffffffff16141561071a576040517f08c379a0000000000000000000000000000000000000000000000000000000008152600401610711906112a5565b60405180910390fd5b61072381610c84565b50565b600033905090565b600073ffffffffffffffffffffffffffffffffffffffff168373ffffffffffffffffffffffffffffffffffffffff16141561079e576040517f08c379a000000000000000000000000000000000000000000000000000000000815260040161079590611365565b60405180910390fd5b600073ffffffffffffffffffffffffffffffffffffffff168273ffffffffffffffffffffffffffffffffffffffff16141561080e576040517f08c379a0000000000000000000000000000000000000000000000000000000008152600401610805906112c5565b60405180910390fd5b80600160008573ffffffffffffffffffffffffffffffffffffffff1673ffffffffffffffffffffffffffffffffffffffff16815260200190815260200160002060008473ffffffffffffffffffffffffffffffffffffffff1673ffffffffffffffffffffffffffffffffffffffff168152602001908152602001600020819055508173ffffffffffffffffffffffffffffffffffffffff168373ffffffffffffffffffffffffffffffffffffffff167f8c5be1e5ebec7d5bd14f71427d1e84f3dd0314c0f7b2291e5b200ac8c7c3b925836040516108ec91906113a5565b60405180910390a3505050565b6000610905848461061b565b90507fffffffffffffffffffffffffffffffffffffffffffffffffffffffffffffffff811461097f5781811015610971576040517f08c379a0000000000000000000000000000000000000000000000000000000008152600401610968906112e5565b60405180910390fd5b61097e848484840361072e565b5b50505050565b600073ffffffffffffffffffffffffffffffffffffffff168373ffffffffffffffffffffffffffffffffffffffff1614156109f5576040517f08c379a00000000000000000000000000000000000000000000000000000000081526004016109ec90611345565b60405180910390fd5b600073ffffffffffffffffffffffffffffffffffffffff168273ffffffffffffffffffffffffffffffffffffffff161415610a65576040517f08c379a0000000000000000000000000000000000000000000000000000000008152600401610a5c90611285565b60405180910390fd5b610a70838383610d4a565b60008060008573ffffffffffffffffffffffffffffffffffffffff1673ffffffffffffffffffffffffffffffffffffffff16815260200190815260200160002054905081811015610af6576040517f08c379a0000000000000000000000000000000000000000000000000000000008152600401610aed90611305565b60405180910390fd5b8181036000808673ffffffffffffffffffffffffffffffffffffffff1673ffffffffffffffffffffffffffffffffffffffff16815260200190815260200160002081905550816000808573ffffffffffffffffffffffffffffffffffffffff1673ffffffffffffffffffffffffffffffffffffffff1681526020019081526020016000206000828254610b8991906113f7565b925050819055508273ffffffffffffffffffffffffffffffffffffffff168473ffffffffffffffffffffffffffffffffffffffff167fddf252ad1be2c89b69c2b068fc378daa952ba7f163c4a11628f55a4df523b3ef84604051610bed91906113a5565b60405180910390a3610c00848484610d4f565b50505050565b610c0e610726565b73ffffffffffffffffffffffffffffffffffffffff16610c2c6104c5565b73ffffffffffffffffffffffffffffffffffffffff1614610c82576040517f08c379a0000000000000000000000000000000000000000000000000000000008152600401610c7990611325565b60405180910390fd5b565b6000600560019054906101000a900473ffffffffffffffffffffffffffffffffffffffff16905081600560016101000a81548173ffffffffffffffffffffffffffffffffffffffff021916908373ffffffffffffffffffffffffffffffffffffffff1602179055508173ffffffffffffffffffffffffffffffffffffffff168173ffffffffffffffffffffffffffffffffffffffff167f8be0079c531659141344cd1fd0a4f28419497f9722a3daafe3b4186f6b6457e060405160405180910390a35050565b505050565b505050565b600081359050610d6381611576565b92915050565b600081359050610d788161158d565b92915050565b600060208284031215610d9057600080fd5b6000610d9e84828501610d54565b91505092915050565b60008060408385031215610dba57600080fd5b6000610dc885828601610d54565b9250506020610dd985828601610d54565b9150509250929050565b600080600060608486031215610df857600080fd5b6000610e0686828701610d54565b9350506020610e1786828701610d54565b9250506040610e2886828701610d69565b9150509250925092565b60008060408385031215610e4557600080fd5b6000610e5385828601610d54565b9250506020610e6485828601610d69565b9150509250929050565b610e778161144d565b82525050565b610e868161145f565b82525050565b6000610e97826113db565b610ea181856113e6565b9350610eb18185602086016114a2565b610eba81611565565b840191505092915050565b6000610ed26023836113e6565b91507f45524332303a207472616e7366657220746f20746865207a65726f206164647260008301527f65737300000000000000000000000000000000000000000000000000000000006020830152604082019050919050565b6000610f386026836113e6565b91507f4f776e61626c653a206e6577206f776e657220697320746865207a65726f206160008301527f64647265737300000000000000000000000000000000000000000000000000006020830152604082019050919050565b6000610f9e6022836113e6565b91507f45524332303a20617070726f766520746f20746865207a65726f20616464726560008301527f73730000000000000000000000000000000000000000000000000000000000006020830152604082019050919050565b6000611004601d836113e6565b91507f45524332303a20696e73756666696369656e7420616c6c6f77616e63650000006000830152602082019050919050565b60006110446026836113e6565b91507f45524332303a207472616e7366657220616d6f756e742065786365656473206260008301527f616c616e636500000000000000000000000000000000000000000000000000006020830152604082019050919050565b60006110aa6020836113e6565b91507f4f776e61626c653a2063616c6c6572206973206e6f7420746865206f776e65726000830152602082019050919050565b60006110ea6025836113e6565b91507f45524332303a207472616e736665722066726f6d20746865207a65726f20616460008301527f64726573730000000000000000000000000000000000000000000000000000006020830152604082019050919050565b60006111506024836113e6565b91507f45524332303a20617070726f76652066726f6d20746865207a65726f2061646460008301527f72657373000000000000000000000000000000000000000000000000000000006020830152604082019050919050565b60006111b66025836113e6565b91507f45524332303a2064656372656173656420616c6c6f77616e63652062656c6f7760008301527f207a65726f0000000000000000000000000000000000000000000000000000006020830152604082019050919050565b6112188161148b565b82525050565b61122781611495565b82525050565b60006020820190506112426000830184610e6e565b92915050565b600060208201905061125d6000830184610e7d565b92915050565b6000602082019050818103600083015261127d8184610e8c565b905092915050565b6000602082019050818103600083015261129e81610ec5565b9050919050565b600060208201905081810360008301526112be81610f2b565b9050919050565b600060208201905081810360008301526112de81610f91565b9050919050565b600060208201905081810360008301526112fe81610ff7565b9050919050565b6000602082019050818103600083015261131e81611037565b9050919050565b6000602082019050818103600083015261133e8161109d565b9050919050565b6000602082019050818103600083015261135e816110dd565b9050919050565b6000602082019050818103600083015261137e81611143565b9050919050565b6000602082019050818103600083015261139e816111a9565b9050919050565b60006020820190506113ba600083018461120f565b92915050565b60006020820190506113d5600083018461121e565b92915050565b600081519050919050565b600082825260208201905092915050565b60006114028261148b565b915061140d8361148b565b9250827fffffffffffffffffffffffffffffffffffffffffffffffffffffffffffffffff0382111561144257611441611507565b5b828201905092915050565b60006114588261146b565b9050919050565b60008115159050919050565b600073ffffffffffffffffffffffffffffffffffffffff82169050919050565b6000819050919050565b600060ff82169050919050565b60005b838110156114c05780820151818401526020810190506114a5565b838111156114cf576000848401525b50505050565b600060028204905060018216806114ed57607f821691505b6020821081141561150157611500611536565b5b50919050565b7f4e487b7100000000000000000000000000000000000000000000000000000000600052601160045260246000fd5b7f4e487b7100000000000000000000000000000000000000000000000000000000600052602260045260246000fd5b6000601f19601f8301169050919050565b61157f8161144d565b811461158a57600080fd5b50565b6115968161148b565b81146115a157600080fd5b5056fea2646970667358221220ce2bfb3ca1d1a7afdba1581bd555012230e96f4e853c37da6d6ee16c69c9974e64736f6c63430008000033",
  "immutableReferences": {},
  "source": "// SPDX-License-Identifier: MIT\npragma solidity >=0.4.20;\n\nimport \"@openzeppelin/contracts/token/ERC20/ERC20.sol\";\nimport \"@openzeppelin/contracts/security/Pausable.sol\";\nimport \"@openzeppelin/contracts/access/Ownable.sol\";\n\ncontract Adinkra is ERC20, Pausable, Ownable {\n    constructor() ERC20(\"Adinkra\", \"ADKR\") {\n         _mint(msg.sender, 10000000000000000000 * 10 ** decimals());\n    }\n\n}\n   \n\n    \n  \n\n",
  "sourcePath": "C:\\Users\\jhink\\Adinkra-Coin\\Solidity-ERC-20-Token-Adinkra\\contracts\\Adinkra.sol",
  "compiler": {
    "name": "solc",
    "version": "0.8.0+commit.c7dfd78e.Emscripten.clang"
  },
  "schemaVersion": "3.4.10",
  "updatedAt": "2022-11-03T21:38:29.384Z",
  "devdoc": {
    "kind": "dev",
    "methods": {
      "allowance(address,address)": {
        "details": "See {IERC20-allowance}."
      },
      "approve(address,uint256)": {
        "details": "See {IERC20-approve}. NOTE: If `amount` is the maximum `uint256`, the allowance is not updated on `transferFrom`. This is semantically equivalent to an infinite approval. Requirements: - `spender` cannot be the zero address."
      },
      "balanceOf(address)": {
        "details": "See {IERC20-balanceOf}."
      },
      "decimals()": {
        "details": "Returns the number of decimals used to get its user representation. For example, if `decimals` equals `2`, a balance of `505` tokens should be displayed to a user as `5.05` (`505 / 10 ** 2`). Tokens usually opt for a value of 18, imitating the relationship between Ether and Wei. This is the value {ERC20} uses, unless this function is overridden; NOTE: This information is only used for _display_ purposes: it in no way affects any of the arithmetic of the contract, including {IERC20-balanceOf} and {IERC20-transfer}."
      },
      "decreaseAllowance(address,uint256)": {
        "details": "Atomically decreases the allowance granted to `spender` by the caller. This is an alternative to {approve} that can be used as a mitigation for problems described in {IERC20-approve}. Emits an {Approval} event indicating the updated allowance. Requirements: - `spender` cannot be the zero address. - `spender` must have allowance for the caller of at least `subtractedValue`."
      },
      "increaseAllowance(address,uint256)": {
        "details": "Atomically increases the allowance granted to `spender` by the caller. This is an alternative to {approve} that can be used as a mitigation for problems described in {IERC20-approve}. Emits an {Approval} event indicating the updated allowance. Requirements: - `spender` cannot be the zero address."
      },
      "name()": {
        "details": "Returns the name of the token."
      },
      "owner()": {
        "details": "Returns the address of the current owner."
      },
      "paused()": {
        "details": "Returns true if the contract is paused, and false otherwise."
      },
      "renounceOwnership()": {
        "details": "Leaves the contract without owner. It will not be possible to call `onlyOwner` functions anymore. Can only be called by the current owner. NOTE: Renouncing ownership will leave the contract without an owner, thereby removing any functionality that is only available to the owner."
      },
      "symbol()": {
        "details": "Returns the symbol of the token, usually a shorter version of the name."
      },
      "totalSupply()": {
        "details": "See {IERC20-totalSupply}."
      },
      "transfer(address,uint256)": {
        "details": "See {IERC20-transfer}. Requirements: - `to` cannot be the zero address. - the caller must have a balance of at least `amount`."
      },
      "transferFrom(address,address,uint256)": {
        "details": "See {IERC20-transferFrom}. Emits an {Approval} event indicating the updated allowance. This is not required by the EIP. See the note at the beginning of {ERC20}. NOTE: Does not update the allowance if the current allowance is the maximum `uint256`. Requirements: - `from` and `to` cannot be the zero address. - `from` must have a balance of at least `amount`. - the caller must have allowance for ``from``'s tokens of at least `amount`."
      },
      "transferOwnership(address)": {
        "details": "Transfers ownership of the contract to a new account (`newOwner`). Can only be called by the current owner."
      }
    },
    "version": 1
  },
  "userdoc": {
    "kind": "user",
    "methods": {},
    "version": 1
  }
}